S01A00005077724D676D742D41746D656761333238702E73726563B3
S113000033C0000044C0000042C0000040C00000F3
S11300103EC000003CC000008EC0000038C000009C
S113002036C0000034C0000032C0000030C0000000
S11300302EC000002CC000002AC0000028C0000010
S113004026C0000024C0000022C0000020C0000020
S11300501EC000001CC000001AC0000018C0000030
S113006016C0000014C0000011241FBECFEFD8E05A
S1130070DEBFCDBF11E0A0E0B1E0E0E7F1E002C0F7
S113008005900D92A230B107D9F72CD06FC0B8CF2C
S1130090F89484B7877F84BFE0E6F0E080818861CC
S11300A0808381E280837894808180648083089552
S11300B083B7817F846083BF83B7816083BF83B745
S11300C0816083BF889583B78E7F83BF83B78E7F1C
S11300D083BFE4E6F0E08081807180830895D8DFF7
S11300E0E7CF0895579A80910001909101010197FB
S11300F0F9F45F9A2FEF8BE792E92150804090400A
S1130100E1F700C000005F982FEF8BE792E92150E0
S113011080409040E1F700C000001092010110926D
S11301200001DDDF8091000190910101019709F345
S113013080E090E008951F920F920FB60F92112461
S11301408F939F935F9A8091000190910101892B75
S113015031F481E090E090930101809300019F913C
S11301608F910F900FBE0F901F901895F894FFCFAA
S1050170010088
S9030000FC
